:100000000C94B0000C94D8000C94D8000C94D80038
:100010000C94D8000C94D8000C94D8000C944B216C
:100020000C94D8000C9473080C94D8000C94A2156E
:100030000C94D8000C94D8000C94D8000C94D800E0
:100040000C94511A0C94D8000C94AE1D0C94E01D25
:100050000C94D8000C94D8000C94D8000C94D800C0
:100060000C942B140C94D8007E026A026F026E026C
:100070007302770279027D0237043904430449048C
:1000800057045D045F04F50A010BF70AF90AFB0A3D
:10009000FD0AFF0AF00DF60D060E0C0E120E160EDE
:1000A000410E4B0E750E890E8C0E910EA40EA80EED
:1000B000AC0EB10ED20E100F130F1E0F230F370F01
:1000C0003B0F3E0F770F870F970FA60FBB0FCE0F7B
:1000D000DC0FFC0F0510201025102D1031103F10E3
:1000E0004D105B10C41169107010D810DB10E610B1
:1000F000F60DF60D0A113B113F1150117A11000057
:1001000000080002010000030407000000000000D6
:1001100000000102040810204080010204081020A1
:10012000010204081020040404040404040402026C
:100130000202020203030303030300000000230082
:100140002600290000000000250028002B000000E8
:100150000000240027002A000200DA0C4113101EC0
:1001600011241FBECFEFD8E0DEBFCDBF11E0A0E06D
:10017000B1E0EEE7FCE402C005900D92A036B107B5
:10018000D9F725E0A0E6B1E001C01D92AF36B20775
:10019000E1F711E0C0E6D1E004C02297FE010E9421
:1001A000E424CA35D107C9F70E94EF210C943D26FB
:1001B0000C94000084B5836884BD17BC61E086E0C0
:1001C0000C94D11B84B5836284BD18BC61E085E0CA
:1001D0000C94D11BCF93DF9360E08CE00E940A1C4B
:1001E00060E088E00E940A1CC7E0D0E060E084E0A4
:1001F0000E940A1C8091610190E00C2E02C095952E
:1002000087950A94E2F780FF02C061E001C060E0D8
:1002100088E00E940A1C61E084E00E940A1C219789
:1002200028F761E08CE0DF91CF910C940A1CCF930A
:10023000DF93EC0161E08CE00E94D11B61E087E07C
:100240000E94D11B61E088E00E94D11B61E084E044
:100250000E94D11B10926101CE010E94EA0060E071
:1002600087E0DF91CF910C940A1CE0EBF0E09081E5
:100270009368908387708093B1001092B30061E01F
:100280008BE00C94D11BE0EBF0E0908193629083C3
:1002900087708093B1001092B40061E083E00C9409
:1002A000D11BEF92FF920F931F93CF93DF931F9277
:1002B000CDB7DEB77C018B0180E691E049830E94D7
:1002C0001701F7011183008349814283138641306E
:1002D00029F580916101817E8093610180E691E042
:1002E0000E94EA0061E08BE00E94D11B61E083E0A4
:1002F0000E94D11B61E08BE00E940A1C61E083E058
:100300000E940A1C81E00E94350181E00E944301A5
:100310008FEF8093B3008093B40022C0423001F588
:10032000809161018E718093610180E691E00E946D
:10033000EA0061E085E00E94D11B61E086E00E9456
:10034000D11B61E085E00E940A1C61E086E00E940A
:100350000A1C0E94DA000E94E2008FEF87BD88BD70
:100360000F90DF91CF911F910F91FF90EF90089523
:100370000F931F93CF93DF93EC017A81713041F09B
:10038000723009F0C4C0B0E4A0E831E020E204C05B
:10039000B0E1A8E032E024E08B85413019F483FF1E
:1003A00005C00DC0423049F483FF09C0613011F42B
:1003B000805F01C080518B8741C0433031F4613090
:1003C00011F4885FF8CF8850F6CF4430B9F561302A
:1003D00011F48F5F01C081508B875B855F735B87F2
:1003E000852F90E0503148F4EAE1F1E0E81BF90B89
:1003F0005081FC01E65FFE4F1FC060EF650F60316A
:1004000038F4FC01E650FF4F5081EAE2F1E012C0FF
:100410005052503148F4EAE3F1E0E81BF90B508107
:10042000FC01E651FF4F08C0FC01E652FF4F50812E
:10043000EAE4F1E0E81BF90B808102C05FEF8FEF87
:100440009B859F739B87713029F45093B3008093F1
:10045000B40004C0723011F457BD88BD132F122BA5
:100460000B2F0A2B802F812B80959091610189237E
:10047000809361019B85443001F5903118F4812B04
:100480008093610180EF890F803130F43A2B8091A5
:100490006101832B8093610180EE890F803128F404
:1004A00080916101802B809361019053903148F5D8
:1004B0002B2B80916101822B0EC0492F46954695CA
:1004C000469550E048305105E0F44C5C5F4FFA012E
:1004D0000C94E224812B8093610113C03A2B382BBA
:1004E000309361010EC0A82BA09361010AC0802B3C
:1004F000F2CFB82BB093610104C02B2B282B209393
:10050000610180E691E00E94EA008B8501C080E0F5
:10051000DF91CF911F910F910895DC0112962C91DC
:100520002230C9F028F4222341F0213069F00895E7
:100530002430C1F02830E9F00895DC01ED91FC9100
:100540000280F381E02D0994DC01ED91FC9104809F
:10055000F581E02D14C0DC01ED91FC910680F7815E
:10056000E02D0DC0DC01ED91FC910084F185E02DC2
:1005700006C0DC01ED91FC910284F385E02D099425
:100580004F925F926F927F928F929F92AF92BF92A3
:10059000CF92DF92EF92FF92CF93DF93EC016B85C6
:1005A0007C858D859E85CF80D884E984FA846C19FA
:1005B0007D098E099F0909F4EFC07AF00E94032398
:1005C0009B01AC010E9400222F89388D498D5A8DE4
:1005D0000E94B7236B017C0119C09095809570959E
:1005E00061957F4F8F4F9F4F0E9403239B01AC016A
:1005F0000E9400222F89388D498D5A8D0E94B72381
:100600006B017C01F7FAF094F7F8F0948F849888E6
:10061000A988BA889401A501B401C5010E94B72335
:100620002B013C0120E030E0A901B401C5010E948A
:10063000B32318162CF420E030E040E85FE304C058
:1006400020E030E040E85FEBC301B2010E94B72335
:100650002B013C019B01AC01C701B6010E94B323F1
:1006600018160CF043C0CB88DC88ED88FE88960114
:10067000A701B401C5010E946422882309F496C031
:1006800020E030E0A901B401C5010E94642281117B
:100690000BC06F89788D898D9A8D9B01AC010E946A
:1006A00000220E941E2418C09401A5016F89788D34
:1006B000898D9A8D0E9468222B013C0120E030E058
:1006C000A9010E94B323A301920118160CF05058FF
:1006D000B401C5010E9400224B015C019601A701F3
:1006E0000E94B32318160CF461C05BC0A3019201F1
:1006F000C701B6010E94642287FF53C0CB88DC8803
:10070000ED88FE88F7FAF094F7F8F094A7019601C7
:10071000B401C5010E946422882309F447C020E087
:1007200030E0A901B401C5010E946422811111C009
:100730006F89788D898D9A8D9B01AC010E94002272
:100740000E941E244B015C01B7FAB094B7F8B09434
:100750001AC09401A5016F89788D898D9A8D0E94A8
:1007600068222B013C0120E030E0A9010E94B32364
:10077000A301920118160CF05058B401C5010E9453
:10078000FF214B015C01A7019601C501B4010E9444
:10079000642287FD0BC005C040E030E020E0F12C72
:1007A00008C0482D392D2A2DFB2C03C04C2D3D2D82
:1007B0002E2D642F732F822F9F2DDF91CF91FF90CD
:1007C000EF90DF90CF90BF90AF909F908F907F90F1
:1007D0006F905F904F900895CF93DF93EC0163701B
:1007E0006230C1F06330E1F0613031F061E08B8163
:1007F0000E940A1C60E005C060E08B810E940A1C18
:1008000061E08C810E940A1C61E08D810E940A1CBB
:1008100060E013C060E08B810E940A1C61E005C0AB
:1008200061E08B810E940A1C60E08C810E940A1C9E
:1008300060E08D810E940A1C61E08E81DF91CF9182
:100840000C940A1CCF93DF93EC016770462F50E0A5
:10085000FA013197E730F10520F4E45CFF4F0C9486
:10086000E22461E08B810E940A1C60E017C061E015
:1008700001C060E08B810E940A1C60E08C810E94B4
:100880000A1C61E00FC060E08B810E940A1C61E0DD
:10089000F5CF60E08B810E940A1C61E08C810E9490
:1008A0000A1C60E08D810E940A1C60E015C060E0B7
:1008B0008B810E940A1C61E007C060E001C061E01A
:1008C0008B810E940A1C60E08C810E940A1C60E0FF
:1008D0008D810E940A1C61E08E81DF91CF910C9482
:1008E0000A1C1F93CF93DF93EC0111E020E030E06E
:1008F000A9016F85788989899A890E94B32318167E
:100900000CF010E0612F8C810E940A1C61E08B8149
:100910000E940A1C8BA19CA10E94E61A60E08B81B8
:10092000DF91CF911F910C940A1CCF93DF93EC01C0
:1009300020E030E0A9016F85788989899A890E9431
:10094000B32318161CF4EDA1FEA102C0EFA1F8A577
:10095000DF91CF910994CF93DF93EC016370623004
:1009600061F0633061F0613011F060E001C061E07E
:100970008B810E940A1C61E007C061E001C060E059
:100980008B810E940A1C60E08C81DF91CF910C94D6
:100990000A1C8F929F92AF92BF92CF92DF92EF92FA
:1009A000FF920F931F93CF93DF93EC010E949B1A4A
:1009B0006B017C010F8D18A129A13AA14B8D5C8D93
:1009C0006D8D7E8D400F511F621F731F40175107A1
:1009D0006207730730F0C416D506E606F70660F422
:1009E00006C0C416D506E606F70608F43FC0C016D2
:1009F000D106E206F306D0F58F849888A988BA88D4
:100A000020E030E0A901C501B4010E94B32318160B
:100A10004CF44F81588569857A854F5F5F4F6F4FE2
:100A20007F4F11C020E030E0A901C501B4010E9450
:100A3000642287FF0CC04F81588569857A854150B3
:100A40005109610971094F83588769877A87E8815D
:100A5000F9816F8167700190F081E02DCE010995D9
:100A6000CF8ED8A2E9A2FAA281E001C080E0DF9196
:100A7000CF911F910F91FF90EF90DF90CF90BF909B
:100A8000AF909F908F9008950F931F93FC01638503
:100A90007485858596850781108521853285601B43
:100AA000710B820B930B1F910F9108950F931F935E
:100AB000FC0181E291E0918380831282178210868B
:100AC0001186128613861486158616861786108A56
:100AD000118A128A00E010E020E83FE3038B148BB8
:100AE000258B368B078B108F218F328F138E148EB0
:100AF000158E168E81E090E094A383A3178E10A22A
:100B000011A212A2138214821582168276A365A303
:100B100050A747A31F910F9108958F929F92AF9274
:100B2000BF92CF92DF92EF92FF92CF93DF93EC01CF
:100B30006A017B012F85388949895A89C701B60125
:100B40000E946422882309F456C020E030E0A90105
:100B5000C701B6010E94B323181664F48B889C88E1
:100B6000AD88BE88A5019401C701B6010E94B323D8
:100B70001816CCF020E030E0A901C701B6010E94B0
:100B8000642287FF15C08B889C88AD88BE88B7FA21
:100B9000B094B7F8B094A5019401C701B6010E94C2
:100BA000642287FF05C08F86988AA98ABA8A04C002
:100BB000CF86D88AE98AFA8A2F85388949895A895D
:100BC00060E074E284E799E40E9468226B017C0192
:100BD00020E030E0A9010E94B32318161CF4C701DD
:100BE000B60103C0C701B60190580E94D5226B8F91
:100BF0007C8F8D8F9E8FDF91CF91FF90EF90DF9054
:100C0000CF90BF90AF909F908F900895CF93DF9338
:100C1000EC01E881F9810484F585E02D0995AB01AB
:100C2000BC01CE01DF91CF910C948D050F931F93E2
:100C3000FC010781108521853285040F151F261FB1
:100C4000371F03871487258736871F910F910C94D0
:100C500006060F931F93CF93DF93EC010B851C8542
:100C60002D853E854F81588569857A85041715073E
:100C70002607370741F00E94C904882331F0CE01CE
:100C80000E94060602C080E001C081E0DF91CF91A2
:100C90001F910F910895FC01438B548B658B768BCC
:100CA0000C940606FC01478B508F618F728F0C9459
:100CB0000606CF93DF93EC018A818823B9F060E0C8
:100CC0008B810E940A1C60E08C810E940A1C8A8130
:100CD000843011F0883051F460E08D810E940A1C4C
:100CE00060E08E81DF91CF910C940A1CDF91CF914F
:100CF0000895CF93DF93EC018A818823B9F061E0F6
:100D00008B810E94D11B61E08C810E94D11B8A8162
:100D1000843011F0883051F461E08D810E94D11B44
:100D200061E08E81DF91CF910C94D11BDF91CF9147
:100D30000895CF92DF92EF92FF920F93FC013E2D28
:100D400081E291E09183808362831782108611860D
:100D5000128613861486158616861786108A118ABF
:100D6000128AC12CD12C80E8E82E8FE3F82EC38A9A
:100D7000D48AE58AF68AC78AD08EE18EF28E138EE7
:100D8000148E158E168E81E090E094A383A3178EA7
:100D900010A211A212A24383248305833683CF01BC
:100DA0000F91FF90EF90DF90CF900C947906CB01DC
:100DB000E0EBF0E02081206220830C94E61ACB0166
:100DC000E0EBF0E020812F7D20830C94E61ACF9396
:100DD000DF93EB01E0E7F0E080818E7F808361E0CC
:100DE00083E00E94D11B60E083E00E940A1C81E046
:100DF0008093B00089E08093B1009E01442737FDC5
:100E00004095542F60E47FE180E090E00E94C3248D
:100E1000E3EBF0E0208390818BEA989F812D1124F1
:100E200086958093B400DF91CF910895AF92BF92E1
:100E3000CF92DF92EF92FF920F931F93CF93DF93A6
:100E4000EC016A017B01590166E270E00E94E7064D
:100E500068E273E2CE010E94D70664E971E1CE0137
:100E60000E94DF0600E010E060E372E0CE010A15A8
:100E70001B05ACF4F7FE05C00E94D70660E476E0DF
:100E800004C00E94D70660E372E0CE010E94DF0634
:100E9000CC0CDD1CEE1CFF1C0F5F1F4FE5CF0E942A
:100EA000D70660E070E0CE01DF91CF911F910F91E6
:100EB000FF90EF90DF90CF90BF90AF900C94DF0643
:100EC000AF92BF92CF92DF92EF92FF920F931F9358
:100ED000CF93DF93EC016A017B01590168E270E076
:100EE0000E94E70660E679E0CE010E94D70668E539
:100EF00072E0CE010E94DF0680E290E08A199B0931
:100F000004C0CC0CDD1CEE1CFF1C8A95D2F700E05F
:100F100010E00A151B05B4F4F7FE03C060EB74E0A3
:100F200002C068E572E0CE010E94D70668E572E073
:100F3000CE010E94DF06CC0CDD1CEE1CFF1C0F5FF7
:100F40001F4FE7CFDF91CF911F910F91FF90EF904F
:100F5000DF90CF90BF90AF900895AF92BF92CF92A5
:100F6000DF92EF92FF920F931F93CF93DF93EC01E9
:100F70006A017B01590164E270E00E94E70680E2A9
:100F800090E08A199B0904C0CC0CDD1CEE1CFF1CF0
:100F90008A95D2F769E773E0CE010E94D70669E728
:100FA00073E0CE010E94DF0669E773E0CE010E9484
:100FB000D70600E010E00A151B05DCF469E773E0D2
:100FC000CE01F7FE08C00E94DF0669E773E0CE019C
:100FD0000E94D70607C00E94D70669E773E0CE01DA
:100FE0000E94DF06CC0CDD1CEE1CFF1C0F5F1F4FA8
:100FF000E2CF60E070E0CE01DF91CF911F910F91C1
:10100000FF90EF90DF90CF90BF90AF900C94DF06F1
:101010008F929F92AF92BF92CF92DF92EF92FF9208
:101020000F931F93CF93DF93EC016A017B0159016A
:1010300064E270E00E94E70680E290E08A199B0972
:1010400004C0CC0CDD1CEE1CFF1C8A95D2F76AE6AE
:101050007AE0CE010E94D70669E773E0CE010E94D4
:10106000DF066CEB71E0CE010E94D7066CEB71E0FD
:10107000CE010E94DF06812C912C8A149B0414F56A
:1010800083E08816910419F408E713E002C00CEB22
:1010900011E0B801CE01F7FE07C00E94D706B801E3
:1010A000CE010E94DF0606C00E94DF06B801CE0115
:1010B0000E94D706CC0CDD1CEE1CFF1C8FEF881A9B
:1010C000980ADBCF60E070E0CE01DF91CF911F91F5
:1010D0000F91FF90EF90DF90CF90BF90AF909F90D7
:1010E0008F900C94DF061F920F920FB60F9211246F
:1010F0002F933F934F935F936F937F938F939F9320
:10110000AF93BF93EF93FF9381EA8093B2008091F6
:1011100062010E94401C20916501309166012F5FA1
:101120003F4F30936601209365019091FF019C34FD
:1011300018F095E090936301909163019330B9F0BA
:1011400018F4923039F057C0943059F1953009F4C1
:101150004CC051C081114FC0209165013091660192
:101160002436310508F443C01092FF011CC08130C1
:1011700009F041C0E091FF0191E09E0F9093FF01C3
:10118000F0E02091650130916601EE0FFF1FEE59EE
:10119000FE4F36832583109266011092650194E01C
:1011A00021C0811117C0E091FF0191E09E0F909343
:1011B000FF01F0E02091650130916601EE0FFF1F05
:1011C000EE59FE4F36832583109266011092650119
:1011D00093E008C020916501309166012536310504
:1011E00050F095E09093630106C0811104C0109205
:1011F00066011092650190916401992329F0811193
:1012000002C02D9A01C02D98FF91EF91BF91AF912F
:101210009F918F917F916F915F914F913F912F910E
:101220000F900FBE0F901F90189541E061E089E983
:1012300093E00C94B80141E062E089E993E00C94FA
:10124000B80141E061E08DE893E00C94B80141E021
:1012500062E08DE893E00C94B801DC01ED91FC9123
:101260000190F081E02D0994DC01ED91FC91019059
:10127000F081E02D09949CB5937F982B9CBD089537
:101280002CB5982F93702C7F922B9CBD9DB582FB23
:10129000882780F99E7F982B9DBD0895FC01DB0176
:1012A00012968C911297828313968C911397838355
:1012B00014968C911497848315968C911597858339
:1012C00016968C911697868317964D915D916D9128
:1012D0007C911A9747835087618772871B964D913F
:1012E0005D916D917C911E974387548765877687C2
:1012F0001F964D915D916D917C9152974787508BD0
:10130000618B728B53964D915D916D917C91569747
:10131000438B548B658B768B57964D915D916D9178
:101320007C915A97478B508F618F728F5B964D914E
:101330005D916D917C915E97438F548F658F768F11
:101340005F964D915D916D917C919297478F50A3DF
:1013500061A372A393968D919C91949794A383A378
:1013600095968D919C91969796A385A397968D912E
:101370009C91989790A787A3CF010895CF93DF936F
:10138000EC016A8165FB662760F98DE00E940A1C0A
:101390006A81629561708CE00E940A1C6A8163FB1D
:1013A000662760F98BE00E940A1C6A8162FB66274F
:1013B00060F98AE00E940A1C6A816695617089E082
:1013C0000E940A1C6A81617088E00E940A1C6B817D
:1013D000661F6627661F87E00E940A1C6B8166FBFA
:1013E000662760F986E00E940A1C6B8165FB662710
:1013F00060F985E00E940A1C6B816295617084E04F
:101400000E940A1C6B8163FB662760F983E00E94DF
:101410000A1C6B8162FB662760F982E00E940A1C4D
:101420006B816695617081E00E940A1C6B8161701E
:1014300080E0DF91CF910C940A1C8F929F92AF9223
:10144000BF92CF92DF92EF92FF920F931F93CF93B1
:10145000DF9380E00E942C1B4C0181E00E942C1B3A
:101460006C0182E00E942C1B7C0183E00E942C1BFB
:10147000EC0184E00E942C1B5C0185E00E942C1B87
:101480008C01892D8370982E9601220F331F220F15
:10149000331F922A960196E0359527959A95E1F7A4
:1014A000822F8F70C82E970144E0220F331F4A9578
:1014B000E1F7C22A970154E0359527955A95E1F74F
:1014C000822F8F73E82E9E0166E0220F331F6A95EC
:1014D000E1F7E22A8B2D8370B82E9801220F331F7B
:1014E000220F331FB22A682D89EB94E00E94931ECD
:1014F000692D89EB94E00E94931E6C2D89EB94E09A
:101500000E94931E6E2D89EB94E00E94931EBE01F3
:10151000759567957595679589EB94E00E94931E84
:101520006A2D89EB94E00E94931E6B2D89EB94E069
:101530000E94931EB801F6E075956795FA95E1F75C
:101540006F7089EB94E0DF91CF911F910F91FF9025
:10155000EF90DF90CF90BF90AF909F908F900C94C2
:10156000931EEF92FF920F931F93CF93DF938C0103
:101570000E5F1F4FC5E3D2E0780161E0F801819171
:101580008F010E94D11BF701808190E0899399938C
:10159000F2E0C534DF0781F7DF91CF911F910F9102
:1015A000FF90EF9008950F931F93CF93DF938C01DB
:1015B0000F5F1F4FC3E3D2E0F80161918F01888173
:1015C00022960E940A1CF2E0C334DF07A9F7DF91DC
:1015D000CF911F910F91089590E08730910588F485
:1015E000FC01ED5BFF4F0C94E22484E00BC085E02E
:1015F00009C081E007C086E005C082E003C083E047
:1016000001C080E00C944009FC0120E030E08191B1
:10161000480F2F5F3F4F2E303105C9F7842F0895B3
:10162000CF93DF93EC010E94040B21E030E09E8514
:10163000891302C020E030E0C901DF91CF91089505
:101640006F927F928F929F92AF92BF92CF92DF92D2
:10165000EF92FF920F931F93CF93DF93EC018D8056
:10166000912C982C88248E81880E911C0A8110E080
:10167000102F00278B81080F111DAF80B12CBA2CC1
:10168000AA248885A80EB11CB801882777FD80950B
:10169000982F0E940323AB01BC018C8199E2792E23
:1016A000789EC00111248B5B9D4F0E944B066C807D
:1016B0006401EE24D7FCE094FE2CA114B104D9F40B
:1016C00097FE03C0119501951109B801882777FD90
:1016D0008095982F0E940323AB01BC0119E2169D4F
:1016E000C00111248B5B9D4F0E948D058C81189F3A
:1016F000C001112414C0B501882777FD8095982F6B
:101700000E940323AB01BC01769CC00111248B5BBA
:101710009D4F0E9452068C81789EC0011124B70112
:10172000A6018B5B9D4FDF91CF911F910F91FF9091
:10173000EF90DF90CF90BF90AF909F908F907F9071
:101740006F900C9416060F931F93CF93DF93C0E016
:10175000D0E08091A9039091AA03C817D9070CF093
:1017600056C08091B7030E942C1B8C0190934402B9
:101770008093430220E030E04AE754E46091B303F1
:101780007091B4038091B5039091B6030E94B32386
:10179000B8011816E4F4769567957695679589EB08
:1017A00094E00E942D0920E034E244E759E460917E
:1017B000A5037091A6038091A7039091A8030E94AE
:1017C000B7230E94D522CB010E94E61A1EC07727BC
:1017D00089EB94E00E942D096091440270E089EB4E
:1017E00094E00E942D0920E030E04AE754E4609143
:1017F000A5037091A6038091A7039091A8030E946E
:10180000B7230E94D5220E94BE1A2196A2CFDF9153
:10181000CF911F910F9108958F929F92BF92CF9277
:10182000DF92EF92FF920F931F93CF93DF93B82E27
:101830006A017B0189019A01AB0160E070E080E8F8
:101840009FE30E9468226093AF037093B00380937C
:10185000B1039093B203C0E0D0E0C017D1070CF001
:101860004FC08B2D0E942C1B4C01909344028093FF
:10187000430220E030E04AE754E4C701B6010E9489
:10188000B323B4011816E4F47695679576956795B9
:1018900089EB94E00E942D0920E034E244E759E40A
:1018A0006091AF037091B0038091B1039091B20346
:1018B0000E94B7230E94D522CB010E94E61A1EC0C7
:1018C000772789EB94E00E942D096091440270E033
:1018D00089EB94E00E942D0920E030E04AE754E4CF
:1018E0006091AF037091B0038091B1039091B20306
:1018F0000E94B7230E94D5220E94BE1A2196ADCF26
:10190000DF91CF911F910F91FF90EF90DF90CF90DB
:10191000BF909F908F900895CF92DF92EF92FF92A9
:101920000F931F93CF93DF93EC01EA810496E111AB
:1019300004C07C0100E010E02EC0E150E43040F42F
:10194000F0E0EC5CFE4FC080DD24C7FCD09402C008
:10195000C12CD12C7C0100E010E08B8190E00817B5
:1019600019075CF4F70161917F01A60185E092E01F
:101970000E94001F0F5F1F4FF0CF60E370E089EB04
:1019800094E0DF91CF911F910F91FF90EF90DF9046
:10199000CF900C9434098B8190E0081719076CF7ED
:1019A000F70161917F0185E092E00E94931E0F5F35
:1019B0001F4FF1CFAF92CF92EF920F93CF93DF9360
:1019C00041E068EC70E089E993E00E94510142E057
:1019D00068EC70E08DE893E00E945101C5E4D2E02C
:1019E00045E0E42E04E023E042E064E0CE010E9402
:1019F0009906A99683E0CD38D80791F7A12CC12C80
:101A0000E12C00E020E040E060E085E092E00E9410
:101A1000AE19DF91CF910F91EF90CF90AF900895D5
:101A200026E040E052EC61E070E089EB94E00E9437
:101A30004C1D10922C0210922B021092290210922F
:101A40002A0289EB94E00C94C51C0C94100DEF92C3
:101A5000FF920F931F93CF93DF93EC018A81813024
:101A600039F07E0184E0E80EF11C00E010E086C051
:101A7000109229028B81809328028C818093270207
:101A80007E01E6E0EE0EF11C00E010E08D8190E0BA
:101A9000081719070CF07EC080912902882361F095
:101AA000992787FD909560912702772767FD7095AC
:101AB0000E948D24892B29F460E0809128020E94E5
:101AC0000A1CF70181917F018EBD00000DB407FE55
:101AD000FDCF6EB54AE050E089EB94E00E94001F14
:101AE000809129028F5F80932902992787FD909525
:101AF00060912702772767FD70950E948D24892BBE
:101B000029F461E0809128020E940A1C0F5F1F4F98
:101B1000BDCF809129028823B9F1992787FD90953F
:101B200060912702772767FD70950E948D24892B8D
:101B300059F1F70181917F018EBD00000DB407FEC0
:101B4000FDCF6EB589EB94E00E94E71C80912902DD
:101B50008F5F80932902992787FD909560912702D6
:101B6000772767FD70950E948D24892B29F461E009
:101B7000809128020E940A1C0F5F1F4F8B8190E00A
:101B80000817190734F206C060E0809128020E940D
:101B90000A1CCFCFDF91CF911F910F91FF90EF9053
:101BA00008956F927F928F92AF92CF92DF92EF92D1
:101BB000FF920F931F93CF93DF93CDB7DEB7A99713
:101BC0000FB6F894DEBF0FBECDBF3C01FC01808193
:101BD0008F3F61F4C3010E94100B892B61F006C096
:101BE0006FE271E089EB94E00E94911E89EB94E032
:101BF0000E94C51CDCC3F301818190E0853391050F
:101C0000A8F7FC01E65BFF4F0C94E224F30163812B
:101C100082810E94D11B3DC3F301638182810E94B6
:101C20000A1C37C3C3010E94BE0933C3F301638199
:101C300070E0762F66278481680F711D70933202E1
:101C4000609331028085278130E0322F2227280FD0
:101C5000311D442737FD4095542F20932D0230939A
:101C60002E0240932F02509330026115710521F02E
:101C700082810E94071F0DC3F30182810E943621D9
:101C800008C3F30182810E94401C90934402809318
:101C90004302BC012AC31092440210924302E12C79
:101CA000F12C01E010E08E2D0E94401C892B89F060
:101CB000809143029091440298010E2C02C0220FA1
:101CC000331F0A94E2F7820F931F9093440280938C
:101CD0004302FFEFEF1AFF0A2EE0E216F10419F7B4
:101CE0006091430270914402F8C2F30182810E9424
:101CF0002C1B8093430290934402692F70E089EB80
:101D000094E00E942D09609143027091440277276C
:101D1000ECC20E941D0A4BC3F301638170E0828113
:101D200010C0F301658170E082810E94491BF301BC
:101D3000668170E083810E94491BF301678170E036
:101D400084810E94491BA5C2C3010E94B10AA1C29D
:101D5000C3010E94D30A9DC288EC93E00E94B31293
:101D600098C2F301638188EC93E00E94BD12730175
:101D7000F4E0EF0EF11C00E010E0F301828190E04E
:101D80000817190754F4F70161917F0188EC93E07B
:101D90000E9474120F5F1F4FF0CF88EC93E00E94F7
:101DA0003E1377C210922C0210922B02F301428153
:101DB000638188EC93E00E943B1388EC93E00E94DF
:101DC0001C12F301228130E082179307A4F4809162
:101DD0002B0290912C02019690932C0280932B025F
:101DE000853691050CF0E3C261E070E080E090E0A0
:101DF0000E94BE1AE2CF00E010E0F301828190E081
:101E0000081719070CF0D3C288EC93E00E94241243
:101E1000BC0189EB94E00E9434090F5F1F4FEDCFA6
:101E20000E94581536C2F3018281811103C08CB51E
:101E3000806202C08CB58F7D8CBD2BC2F301828184
:101E40000E94EC0A26C2F3018281813051F038F001
:101E5000823049F0833009F01CC28CE005C080E07C
:101E600003C084E001C088E00E943B0912C2C301A4
:101E70000E94270D9CC20E948E150BC280912502E4
:101E8000909126020E94AE25F3018281F3E08F9F9C
:101E9000C00111240E9416259093260280932502EA
:101EA000C12CD12C00E010E0F301828190E0E090A1
:101EB0002502F0902602081719079CF4EC0CFD1C73
:101EC000CE0101960E945E1689819A81AB81F7014D
:101ED00080839183A2830F5F1F4FF3E0CF0ED11C4D
:101EE000E3CFEF2809F0D5C161E370E0D4C1F3017D
:101EF0002281638170E08091250290912602F3E0B7
:101F00002F9F800D911D11240E94F816C2C1F3016C
:101F10002281638170E08091250290912602F3E096
:101F20002F9F800D911D11240E943F17B2C1F30114
:101F300022818091250290912602F3E02F9F800D4F
:101F4000911D11240E94C117BC01A5C1F30122817A
:101F50008381648170E0762F6627680F711D809100
:101F6000250290912602F3E02F9F800D911D1124F0
:101F70000E940C178EC1F30122818091250290915D
:101F80002602F3E02F9F800D911D11240E94A417BB
:101F90009093440280934302BC019FC1F3012281CC
:101FA0008091250290912602F3E02F9F800D911DD4
:101FB00011240E94FE166DC1F30185858F938485DF
:101FC0008F9383858F9382858F938184A084C7802C
:101FD000E680058124814381628185E092E00E9450
:101FE000821960E370E089EB94E00E9434090F905D
:101FF0000F900F900F90DBC120E0F30143816281CD
:1020000085E092E00E94E41844C1F30182818111CD
:1020100005C085E092E00E94CF1904C085E092E0FF
:102020000E94D619F3018381811105C085E092E0F9
:102030000E94DE192EC185E092E00E94E51929C1B7
:1020400085E092E00E94BC1824C1F30143816281C3
:1020500085E092E00E94C3181CC1C3010E948C0C51
:10206000A6C1F3018281811105C085E092E00E9442
:10207000D5180FC185E092E00E94DC180AC1F30177
:102080008281811105C085E092E00E94ED1901C1B5
:1020900085E092E00E94F019FCC0F3018281811179
:1020A00005C085E092E00E940A1AF3C085E092E044
:1020B0000E94021AEEC0F3018281811105C085E001
:1020C00092E00E94FB19E5C085E092E00E94F319BE
:1020D000E0C0F301628185E092E00E944B1AD9C012
:1020E00081E08093B803F30182818093B7038381F9
:1020F000648170E0762F6627680F711D882777FD51
:102100008095982F0E9403239B01AC016093B30339
:102110007093B4038093B5039093B60360E070E0CE
:1021200080E89FE30E9468226B017C016093AF030B
:102130007093B0038093B1039093B2039B01AC0101
:102140006AE077ED83EA9DE30E9468226093AB0327
:102150007093AC038093AD039093AE030E94D022A2
:10216000161617062CF47093AA036093A90306C0F1
:1021700081E090E09093AA038093A903C092A50305
:10218000D092A603E092A703F092A80320E030E0EB
:10219000A901C701B6010E94642287FF08C11092FD
:1021A000A5031092A6031092A7031092A803FFC0E4
:1021B0001092B803FCC062E089EB94E00E94E71C37
:1021C00060E089EB94E00E94E71CF1C060E370E0FE
:1021D00089EB94E00E943409F3018581E680F12CBB
:1021E000FE2CEE24E80EF11C8381648170E0762FD2
:1021F0006627680F711D882777FD8095982F0E94AC
:102200000323AB01BC01F3018281970190E00E949E
:102210000C0CCDC0F3016281653099F48381882371
:1022200039F08130B1F547E259E061E279E004C06C
:102230004BE159E065E179E0CE0101960E94560537
:102240000CC0F301E780068125814481663009F4E2
:1022500061E0CE0101960E949906F3018381F9E2C3
:102260008F9FC0011124BE016F5F7F4F8B5B9D4F1D
:102270000E944E090EC0C3010E94200B0AC0F30148
:102280008281F9E28F9FC00111248B5B9D4F0E94D8
:10229000590660E370E089EB94E00E94340987C03E
:1022A000109244021092430205E412E0C8010E9419
:1022B00044052091430230914402620F731F811D37
:1022C000911D9B017093440260934302075D1F4F71
:1022D00083E00D38180751F7B901772789EB94E0AF
:1022E0000E942D096091440270E089EB94E00E9405
:1022F0002D095DC0F3018481458150E060E070E00C
:10230000BA0155274427782B8781482B8681582B83
:1023100040930102509302026093030270930402FF
:1023200082818130A9F060F08230D1F08330F9F4FD
:10233000F301238130E080E092E00E94080817C09A
:10234000F301238130E080E092E00E9416070FC085
:10235000F301238130E080E092E00E94600707C033
:10236000F301238130E080E092E00E94AD07E0912C
:10237000B904F091BA04609103020190F081E02D5C
:1023800089EB94E0099513C0D3011396EDE1F2E0D7
:102390008D91819322E0E532F207D1F74DE152E0D1
:1023A000F301628185E092E00E94111A72CFA99632
:1023B0000FB6F894DEBF0FBECDBFDF91CF911F9156
:1023C0000F91FF90EF90DF90CF90AF908F907F9024
:1023D0006F900895CF93DF93C5E4D2E0CE010E94C1
:1023E0002906A99683E0CD38D807C1F789EB94E098
:1023F0000E94691C0F9794F0C9EBD3E089EB94E03D
:102400000E94821C899383E0C83CD807B9F789EB06
:1024100093E00E94D10D81E090E002C080E090E066
:10242000DF91CF9108950E94EA118091B803813025
:1024300011F40C94A30B08958091F80390E020917F
:10244000F903821B910908952091F9038091F80303
:10245000281750F4E22FF0E0E650FC4F808190E026
:102460002F5F2093F90308958FEF9FEF0895E09178
:10247000F9038091F803E81730F4F0E0E650FC4FE0
:10248000808190E008958FEF9FEF08950895CF9297
:10249000DF92EF92FF920F931F93CF93DF937C0114
:1024A000CB018A012091D403222389F0EB016B0137
:1024B000C40ED51ECC15DD0569F06991D701ED91EB
:1024C000FC910190F081E02DC7010995F3CF642FB5
:1024D0000E940214C801DF91CF911F910F91FF90CC
:1024E000EF90DF90CF900895CF93DF931F92CDB7F9
:1024F000DEB769832091D4032223D1F02091D50344
:10250000203240F021E030E0FC013383228380E080
:1025100090E015C08091D603E82FF0E0E952FC4F1F
:10252000998190838F5F8093D6038093D50305C0F4
:1025300061E0CE0101960E94021481E090E00F90CC
:10254000DF91CF910895FC011382128248EE53E08F
:1025500060E070E044835583668377838CE391E089
:102560009183808308951092F9031092F8031092DA
:10257000D6031092D5030C94451381E08093D403C5
:102580006093F7031092D6031092D50308950F932A
:10259000062F21E04091D50367ED73E08091F703AA
:1025A0000E94AB131092D6031092D5031092D4035D
:1025B0000F9108958F929F92AF92BF92CF92DF9228
:1025C000EF92FF920F931F93CF93DF93EC01F62EC0
:1025D000D42E48015901EE2019F10E94BD121E2D82
:1025E000143008F013E01150B8F0E881F98128E0C8
:1025F000129FB0011124A501940104C0569547957E
:10260000379527956A95D2F7CA01B9010190F081F3
:10261000E02DCE010995E7CF60E0CE010E94C71200
:102620004D2D413208F040E22C2D6AEF73E08F2DE2
:102630000E9463131092F9038093F803DF91CF9106
:102640001F910F91FF90EF90DF90CF90BF90AF90D0
:102650009F908F900895CF92EF920F931F93C22E69
:10266000E12C00E010E098010E94DA121F910F9116
:10267000EF90CF90089521E00C942B1361E00C941F
:10268000C71288EC93E00C94A3121092870481E0A7
:10269000809385041092840461E082E10E940A1C08
:1026A00061E083E10E940A1CE9EBF0E080818E7F0B
:1026B000808380818D7F808388E48093B80085E467
:1026C0008093BC000895413208F043C09091870484
:1026D0009111FCCF91E090938704209385042FEF14
:1026E00020931A0410925F04240F20935E049093A9
:1026F000860490918604880F892B809386048091AC
:102700008404813061F41092840480918604809363
:10271000BB008091BC0083FDF8CF85EC01C085EE45
:102720008093BC00809187048130E1F380915F0445
:10273000841710F440915F0420E634E0FB01D901D6
:102740008A2F821B841718F48D918193F9CF842FDF
:10275000089580E008950F93413208F04AC09091A7
:1027600087049111FCCF92E0909387040093850435
:102770009FEF90931A0410925F0440935E04FB0154
:1027800060E674E0DB019A2F961B941718F4919180
:102790009D93F9CF1092860490918604880F892B1F
:1027A0008093860480918404813061F410928404C3
:1027B000809186048093BB008091BC0083FDF8CF9C
:1027C00085EC01C085EE8093BC00222321F080912E
:1027D00087048230E1F380911A048F3F61F0809189
:1027E0001A04803251F080911A04803341F483E05E
:1027F00007C081E005C080E003C082E001C084E042
:102800000F910895613298F420918704243089F45F
:1028100060933C04FC018EE394E0DC012A2F281B2A
:10282000261718F421912D93F9CF80E0089581E0C7
:10283000089582E0089585ED8093BC008091BC00EE
:1028400084FDFCCF10928704089585EC8093BC0032
:102850001092870408951F920F920FB60F921124C1
:102860002F933F934F935F936F937F938F939F9398
:10287000AF93BF93EF93FF938091B900887F803629
:1028800009F49EC078F5883209F45DC090F4803177
:1028900009F456C038F4882309F4F5C0883009F4E7
:1028A0004FC0F5C0883109F44EC0803209F45FC0D2
:1028B000EEC0803409F46AC058F4803309F457C07C
:1028C000883309F0E4C080931A040E942514DFC005
:1028D000803509F44FC0883509F45DC0883409F0AB
:1028E000D6C0D3C0883909F4C4C0A8F4883709F425
:1028F00067C038F4883609F463C0803709F460C0D3
:10290000C6C0883809F4B5C0803909F45FC0803882
:1029100009F0BDC05BC0803B09F483C038F4803A45
:1029200009F466C0883A09F47CC0B1C0803C09F45F
:10293000A4C0883C09F4A1C0883B09F487C0A7C0A3
:102940008091860410C090915F0480915E04981776
:1029500070F5E0915F0481E08E0F80935F04F0E0FA
:10296000E05AFB4F80818093BB0085EC83C080934D
:102970001A048BC0E0915F0481E08E0F80935F04A6
:102980008091BB00F0E0E05AFB4F808390915F04A0
:1029900080915E046BC0E0915F0481E08E0F8093B4
:1029A0005F048091BB00F0E0E05AFB4F8083809190
:1029B000850481116AC081E08093840484EA5EC04A
:1029C00083E08093870410921B04CFCF80911B0477
:1029D000803208F04EC0E0911B0481E08E0F80939E
:1029E0001B048091BB00F0E0E45EFB4F8083BDCF11
:1029F0000E94251480911B04803230F4E0911B0466
:102A0000F0E0E45EFB4F108260911B0470E0E09107
:102A10008004F09181048CE194E0099510921B04EC
:102A200036C084E08093870410923D0410923C04E9
:102A3000E0918204F0918304099580913C04811116
:102A400005C081E080933C0410923E04E0913D0477
:102A500081E08E0F80933D04F0E0E25CFB4F8081CB
:102A60008093BB0090913D0480913C04981708F43A
:102A70007CCF85E88093BC000AC085EC8093BC00C5
:102A80001092870404C010921A040E941B14FF9134
:102A9000EF91BF91AF919F918F917F916F915F91D6
:102AA0004F913F912F910F900FBE0F901F9018954F
:102AB000CF93CFB7F89480918904811127C0E0E3C8
:102AC000F1E08491ECE1F1E09491E82FF0E0EE0F79
:102AD000FF1FE25BFE4FA591B4918C91892321F4F5
:102AE00061E08AE00E940A1C61E08AE00E94D11B3A
:102AF0008CB580618CBD8CB580648CBD61E08DE04F
:102B00000E94D11B61E08BE00E94D11B809189045F
:102B10008F5F80938904CFBFCF9108959FB7F894BA
:102B200080918904882319F08150809389048091D1
:102B30008904811105C08CB58F7B8CBD10928804EF
:102B40009FBF08951F920F920FB60F9211242F93DB
:102B50003F934F935F936F937F938F939F93AF9325
:102B6000BF93EF93FF9380918B0487FF05C0109272
:102B70008500109284001AC020918B04332727FD12
:102B8000309580918A0490E0281739077CF4809171
:102B90008B04992787FD9095FC01EE0FFF1FE80F2E
:102BA000F91FE457FB4F808186FD15C080918B048F
:102BB0008F5F80938B0420918B04332727FD309502
:102BC00080918A0490E028173907BCF480918B0427
:102BD0008C305CF112C080918B04992787FD909511
:102BE000FC01EE0FFF1FE80FF91FE457FB4F808138
:102BF00060E08F730E940A1CD9CF8091840090916D
:102C00008500049680349C4918F480E49CE905C052
:102C10008091840090918500049690938900809320
:102C200088008FEF80938B0438C02091840030910E
:102C3000850080918B04992787FD9095FC01EE0F0C
:102C4000FF1FE80FF91FE457FB4F81819281820F2C
:102C5000931F909389008093880080918B0499271B
:102C600087FD9095FC01EE0FFF1FE80FF91FE45759
:102C7000FB4F808186FF11C080918B04992787FDCF
:102C80009095FC01EE0FFF1FE80FF91FE457FB4F73
:102C9000808161E08F730E940A1CFF91EF91BF91C8
:102CA000AF919F918F917F916F915F914F913F91E4
:102CB0002F910F900FBE0F901F90189520918A04AE
:102CC0002C30A0F431E0320F30938A04FC012083D1
:102CD000822F90E0FC01EE0FFF1FE80FF91FE45771
:102CE000FB4F88EB9BE09283818308952FEFFC01DB
:102CF00020830895DF92EF92FF920F931F93CF935B
:102D0000DF93EC01D62E7A01890188818C3008F09E
:102D100066C061E08D2D0E94D11B8881A82FB0E094
:102D2000FD01EE0FFF1FEA0FFB1FE457FB4F2D2D98
:102D30002F739081907C922B908360E272E06E19E9
:102D40007F0977FF02C06D5F7F4F75956795759519
:102D50006795698340E659E0401B510B57FF02C05D
:102D60004D5F5F4F55954795559547954A836CE064
:102D70000E9481249CE0899FB001112420E030E072
:102D8000A901460F571FFA01EE0FFF1FE40FF51FB1
:102D9000E457FB4F908196FD16C02F5F3F4F2C30BC
:102DA000310571F781110FC01092800082E080938D
:102DB00081001092850010928400B19A80916F007A
:102DC000826080936F00888190E0FC01EE0FFF1F0E
:102DD000E80FF91FE457FB4F80818064808388816E
:102DE000DF91CF911F910F91FF90EF90DF900895A9
:102DF00020E639E040E252E00C947A16FC01808132
:102E000090E0FC01EE0FFF1FE80FF91FE457FB4FA6
:102E100080818F7B80830895FC0180818C3070F5E8
:102E2000918128E830E0291B310997FD3395220F65
:102E3000331F220F331F621773077CF0928128E53E
:102E400032E0291B310997FD3395220F331F220FE2
:102E5000331F621773070CF49B0122503109220FB4
:102E6000331F4FB7F89490E0FC01EE0FFF1FE80FFF
:102E7000F91FE457FB4F328321834FBF08954F92D0
:102E80005F926F927F92AF92BF92CF92DF92EF925A
:102E9000FF920F931F93CF93DF93EC01603282E098
:102EA00078070CF040C077FD06C0653B71052CF03B
:102EB00064EB70E002C060E070E0898128E830E0F7
:102EC000281B310987FD3395220F331F220F331F33
:102ED0005901CC24B7FCC094DC2C882777FD809561
:102EE000982F2A8148E552E0421B510927FD53954E
:102EF000440F551F440F551F2A01662457FC609448
:102F0000762C7F926F925F924F9214EBE12EF12C10
:102F100000E010E020E030E0A9010E94A7210F901E
:102F20000F900F900F90CE01DF91CF911F910F91D5
:102F3000FF90EF90DF90CF90BF90AF907F906F9019
:102F40005F904F900C940C17FC0180818F3FB1F083
:102F500090E0FC01EE0FFF1FE80FF91FE457FB4F55
:102F60008181928143E0880F991F4A95E1F754E0EF
:102F7000969587955A95E1F70296089580E090E03E
:102F800008954F925F926F927F92AF92BF92CF92CD
:102F9000DF92EF92FF920F931F93CF93DF9300D0B6
:102FA00000D0CDB7DEB7FC01228148E552E0421BDC
:102FB000510927FD5395440F551F440F551F2A01F2
:102FC000662457FC6094762C418128E830E0241B6D
:102FD000310947FD3395220F331F220F331F44273A
:102FE00037FD4095542F29833A834B835C830E949D
:102FF000A4170196BC01882777FD8095982F1F9212
:103000001F921F92E4EBEF93A12CB12C6501830179
:10301000720129813A814B815C810E94A7210F9026
:103020000F900F900F90CB010F900F900F900F907B
:10303000DF91CF911F910F91FF90EF90DF90CF9094
:10304000BF90AF907F906F905F904F900895CF9317
:10305000DF93EC0160E08E810E940A1C81E090E029
:103060000E94E61A61E08E810E940A1C81E090E0D5
:103070000E94E61A60E08E810E940A1C84E690E0BD
:10308000DF91CF910C94E61AEF92FF920F931F936A
:10309000CF93DF938C01C0E0D0E0E62EF12CB70196
:1030A0000C2E02C0759567950A94E2F76170F801DD
:1030B000EC0FFD1F87810E940A1C2196C430D105A8
:1030C00071F7C801DF91CF911F910F91FF90EF90A1
:1030D0000C942718EF92FF920F931F93CF93DF93D7
:1030E0008C01C0E0D0E0E62EF12CB7010C2E02C01E
:1030F000759567950A94E2F76170F801EC0FFD1F72
:1031000087810E940A1C2196C830D10571F7C80139
:10311000DF91CF911F910F91FF90EF900C942718A2
:103120001F93CF93DF93EC01162F642F8C810E94A5
:103130000A1C8D818F3F19F060E00E940A1C8F8568
:10314000612F84FF06C0CE01DF91CF911F910C94B7
:103150006A1870E084E0759567958A95E1F7CE016D
:103160000E944418612FCE01DF91CF911F910C94E2
:10317000441840E00C94901861E00E94B91880ED6A
:1031800097E00C94E61A443008F043E0FC012389F0
:10319000421710F04FEF420FFC01E40FF11D24899C
:1031A000260F2068622F0C94B918FC0160896B7F90
:1031B000608B68600C94B918FC016089262F24602C
:1031C000208B6C600C94B9180F931F93CF93DF93EF
:1031D000EC01423018F08F8588608F874B8B1C8AFA
:1031E00080E48D8B6E8B70E0605C7F4F6F8B222351
:1031F00029F0413019F48F8584608F8761E08C81DC
:103200000E94D11B8D818F3F19F061E00E94D11B7C
:1032100061E08E810E94D11B00E010E08F8584FF69
:1032200003C088E090E002C084E090E0081719072E
:1032300054F4FE01E00FF11F61E087810E94D11B71
:103240000F5F1F4FEBCF80E593EC0E94E61A60E022
:103250008C810E940A1C60E08E810E940A1C8D8174
:103260008F3F19F060E00E940A1C6F8564FD1DC04D
:1032700063E0CE010E94441884E991E10E94E61ABD
:1032800063E0CE010E94441884E991E10E94E61AAD
:1032900063E0CE010E94441886E990E00E94E61A9D
:1032A00062E0CE010E94441816C06062CE010E9406
:1032B000B91884E991E10E94E61A6F856062CE0137
:1032C0000E94B91886E990E00E94E61A6F85606254
:1032D000CE010E94B9186F856062CE010E94B918B4
:1032E00084E0888BCE010E94DC18CE010E94BC18BD
:1032F00082E0898B66E0CE01DF91CF911F910F9123
:103300000C94B9188F92AF92CF92EF920F93CF9304
:10331000DF93CDB7DEB7FC015A853B859C858D8553
:10332000448325830683E782C086A18682865387ED
:10333000348795878687662311F0178602C080E15F
:10334000878720E041E060E1CF01DF91CF910F91CD
:10335000EF90CF90AF908F900C94E418AF92CF92F3
:10336000EF920F93FC01138212828CE491E091831F
:1033700080836483458326830783E086C186A28693
:103380001386148615861686178620E041E060E1D4
:10339000CF010F91EF90CF90AF900C94E418FC0107
:1033A00060896D7F608B68600C94B918FC0160893E
:1033B000262F2260208B6A600C94B918FC0160896A
:1033C0006E7F608B68600C94B918FC016089262FB1
:1033D0002160208B69600C94B91868E10C94B918CD
:1033E0006CE10C94B918FC016189262F2260218BB5
:1033F00066600C94B918FC0161896D7F618B646013
:103400000C94B918FC016189262F2160218B65601D
:103410000C94B918FC0161896E7F618B64600C9417
:10342000B918CF92DF92EF92FF920F931F93CF9331
:10343000DF9300D0CDB7DEB78C01677088E0689F5E
:10344000B00111246064C80149835A830E94B918ED
:103450004981C42E5A81D52EE12CF12CD6016D91D3
:103460006D01D801ED91FC910190F081E02DC80132
:103470000995BFEFEB1AFB0AE8E0EE16F10471F7CD
:103480000F900F90DF91CF911F910F91FF90EF90D0
:10349000DF90CF90089541E00E94901881E090E085
:1034A00008951F920F920FB60F9211242F933F93FE
:1034B0008F939F93AF93BF938091B1049091B20487
:1034C000A091B304B091B4043091B00423E0230F71
:1034D0002D3720F40196A11DB11D05C026E8230F4C
:1034E0000296A11DB11D2093B0048093B104909366
:1034F000B204A093B304B093B4048091B504909146
:10350000B604A091B704B091B8040196A11DB11DF5
:103510008093B5049093B604A093B704B093B80415
:10352000BF91AF919F918F913F912F910F900FBEBF
:103530000F901F9018953FB7F8948091B504909123
:10354000B604A091B704B091B80426B5A89B05C0F5
:103550002F3F19F00196A11DB11D3FBF6627782F9F
:10356000892F9A2F620F711D811D911D42E0660FF8
:10357000771F881F991F4A95D1F70895CF92DF9240
:10358000EF92FF92CF93DF936B017C010E949B1A15
:10359000EB01C114D104E104F10489F00E94FE2181
:1035A0000E949B1A6C1B7D0B683E734090F381E078
:1035B000C81AD108E108F108C851DC4FEACFDF9101
:1035C000CF91FF90EF90DF90CF90089582309105DA
:1035D00038F0880F991F880F991F05970197F1F709
:1035E0000895789484B5826084BD84B5816084BD7B
:1035F00085B5826085BD85B5816085BDEEE6F0E06C
:10360000808181608083E1E8F0E0108280818260C7
:103610008083808181608083E0E8F0E08081816048
:103620008083E1EBF0E0808184608083E0EBF0E078
:10363000808181608083EAE7F0E08081846080831C
:1036400080818260808380818160808380818068C6
:1036500080831092C10008958E3008F08E508770DC
:1036600020911B0190E4299F90011124822B8093CB
:103670007C0080917A00806480937A0080917A0047
:1036800086FDFCCF809178002091790090E0922B0C
:1036900008951F93CF93DF93182FEB0161E00E94F1
:1036A000D11B209711F460E004C0CF3FD10539F45D
:1036B00061E0812FDF91CF911F910C940A1CE12FC3
:1036C000F0E0E250FF4FE491E330F9F048F4E130EC
:1036D000B9F0E230A1F584B5806284BDC8BD34C0C4
:1036E000E730E9F0E83019F1E43049F580918000E5
:1036F000806280938000D0938B00C0938A0024C0A6
:1037000084B5806884BDC7BD1FC08091800080687B
:1037100080938000D0938900C093880015C0809169
:10372000B00080688093B000C093B3000DC080915A
:10373000B00080628093B000C093B40005C0C03870
:10374000D1050CF0B5CFAFCFDF91CF911F91089588
:10375000833081F028F4813099F08230A1F008950F
:103760008730A9F08830B9F08430D1F4809180009E
:103770008F7D03C0809180008F77809380000895B3
:1037800084B58F7702C084B58F7D84BD0895809104
:10379000B0008F7703C08091B0008F7D8093B00020
:1037A0000895CF93DF9390E0FC01EE5EFE4F2491ED
:1037B000FC01EA5DFE4F8491882349F190E0880F77
:1037C000991FFC01E25BFE4FA591B4918C5B9E4F6B
:1037D000FC01C591D4919FB7611108C0F8948C91F8
:1037E000209582238C93888182230AC0623051F411
:1037F000F8948C91322F309583238C938881822B7F
:10380000888304C0F8948C91822B8C939FBFDF91A6
:10381000CF9108950F931F93CF93DF931F92CDB74E
:10382000DEB7282F30E0F901E250FF4F8491F90113
:10383000EE5EFE4F1491F901EA5DFE4F0491002304
:10384000C9F0882321F069830E94A81B6981E02FB9
:10385000F0E0EE0FFF1FEC5BFE4FA591B4919FB718
:10386000F8948C91611103C01095812301C0812BC4
:103870008C939FBF0F90DF91CF911F910F9108956F
:10388000CF93DF93282F30E0F901E250FF4F84916E
:10389000F901EE5EFE4FD491F901EA5DFE4FC4914D
:1038A000CC2391F081110E94A81BEC2FF0E0EE0FC9
:1038B000FF1FE65CFE4FA591B4912C912D2381E072
:1038C00090E021F480E002C080E090E0DF91CF91B1
:1038D0000895FC01818D228D90E0805C9F4F821BBA
:1038E00091098F7399270895FC01918D828D981706
:1038F00031F0828DE80FF11D858D90E008958FEFF6
:103900009FEF0895FC01918D828D981761F0828D53
:10391000DF01A80FB11D5D968C91928D9F5F9F7303
:10392000928F90E008958FEF9FEF089586E09EE1DB
:10393000892B49F080E090E0892B29F00E94061E37
:1039400081110C9400000895FC01848DDF01A80F03
:10395000B11DA35ABF4F2C91848D90E001968F73B7
:103960009927848FA689B7892C93A089B1898C91D6
:1039700080648C93938D848D981306C00288F3899C
:10398000E02D80818F7D80830895CF93DF93EC01BC
:10399000888D8823C9F0EA89FB89808185FD05C06F
:1039A000A889B9898C9186FD0FC00FB607FCF5CFA9
:1039B000808185FFF2CFA889B9898C9185FFEDCFF1
:1039C000CE010E94A41CE7CFDF91CF910895CF9242
:1039D000DF92FF920F931F93CF93DF931F92CDB788
:1039E000DEB76C0181E0D60158968C9358975B96B0
:1039F0009C915B975C968C915C97981307C050964E
:103A0000ED91FC915197808185FD2EC0F601038DCB
:103A100010E00F5F1F4F0F731127F02EF601848DFA
:103A2000F81211C00FB607FCF9CFD6015096ED91F0
:103A3000FC915197808185FFF1CFC60169830E9477
:103A4000A41C6981EBCF838DE80FF11DE35AFF4F72
:103A50006083D6015B960C935B975296ED91FC9137
:103A60005397808180620CC0D6015696ED91FC91EF
:103A7000579760835096ED91FC91519780818064B7
:103A8000808381E090E00F90DF91CF911F910F91A3
:103A9000FF90DF90CF900895BF92CF92DF92EF9288
:103AA000FF92CF93DF93EC016A017B01B22EE8898C
:103AB000F98982E08083411581EE5807610571051F
:103AC000A1F060E079E08DE390E0A70196010E940B
:103AD000A12421503109410951095695479537953F
:103AE0002795211580E1380798F0E889F989108237
:103AF00060E874E88EE190E0A70196010E94A1249D
:103B00002150310941095109569547953795279517
:103B1000EC85FD853083EE85FF852083188EEC894A
:103B2000FD89B082EA89FB89808180618083EA898E
:103B3000FB89808188608083EA89FB898081806835
:103B40008083EA89FB8980818F7D8083DF91CF919B
:103B5000FF90EF90DF90CF90BF9008951F920F924B
:103B60000FB60F9211242F938F939F93EF93FF9390
:103B7000E091C904F091CA048081E091CF04F091F2
:103B8000D00482FD12C090818091D2048F5F8F7328
:103B90002091D304821751F0E091D204F0E0E75471
:103BA000FB4F958F8093D20401C08081FF91EF91EC
:103BB0009F918F912F910F900FBE0F901F9018958E
:103BC0001F920F920FB60F9211242F933F934F9392
:103BD0005F936F937F938F939F93AF93BF93EF9375
:103BE000FF9389EB94E00E94A41CFF91EF91BF9199
:103BF000AF919F918F917F916F915F914F913F9185
:103C00002F910F900FBE0F901F90189589EB94E0A5
:103C10000E94691C21E0892B09F420E0822F08957D
:103C20001092BC041092BB0488EE93E0A0E0B0E0D8
:103C30008093BD049093BE04A093BF04B093C004CE
:103C400084E591E09093BA048093B90485EC90E008
:103C50009093C6048093C50484EC90E09093C804CC
:103C60008093C70480EC90E09093CA048093C904C9
:103C700081EC90E09093CC048093CB0482EC90E0B4
:103C80009093CE048093CD0486EC90E09093D00482
:103C90008093CF041092D2041092D3041092D404D3
:103CA0001092D5040895CF92DF92EF92FF920F9376
:103CB0001F93CF93DF937C016A01EB0100E010E0DA
:103CC0000C151D0571F06991D701ED91FC910190E2
:103CD000F081E02DC7010995892B19F00F5F1F4F67
:103CE000EFCFC801DF91CF911F910F91FF90EF901F
:103CF000DF90CF9008956115710581F0DB010D9083
:103D00000020E9F7AD0141505109461B570BDC017A
:103D1000ED91FC910280F381E02D099480E090E028
:103D200008950C947B1EDC01ED91FC910190F081D3
:103D3000E02D09948F929F92AF92BF92CF92DF9223
:103D4000EF92FF920F931F93CF93DF93CDB7DEB720
:103D5000A1970FB6F894DEBF0FBECDBF7C01C42E75
:103D6000E52FCB01D22E19A221E02D1510F02AE06B
:103D7000D22E8E010F5D1F4F8D2C912CA12CB12CBA
:103D80006C2D7E2FA50194010E94A1248C2DD29E22
:103D900080191124015011098A3014F4805D01C08A
:103DA000895CF8018083211531054105510521F019
:103DB000C22EE32FCA01E4CFB801C7010E947B1EC7
:103DC000A1960FB6F894DEBF0FBECDBFDF91CF91A5
:103DD0001F910F91FF90EF90DF90CF90BF90AF9029
:103DE0009F908F9008952115310541F4DC01ED91EC
:103DF000FC910190F081E02D642F09940C949A1E9F
:103E00009A01462F50E060E070E00C94F31E3F9260
:103E10004F925F926F927F928F929F92AF92BF92DA
:103E2000CF92DF92EF92FF920F931F93CF93DF9386
:103E300000D000D0CDB7DEB78B0129013A019091B7
:103E40001C01981721F09F3F09F0DAC104C0E8E592
:103E5000F1E0349081C080931C01E8E5F1E0E49149
:103E6000EF3F09F4CDC1E13031F1E23009F44BC04C
:103E7000E11171C014BC15BC94B5926094BD95B5A8
:103E8000916095BD282F30E0F901EA5DFE4FE49185
:103E9000F0E0EE0FFF1FEC5BFE4F45915491509305
:103EA000660540936505F901EE5EFE4F249120936F
:103EB0006405312C53C010928000109281009091C3
:103EC000810098609093810090918100916090931F
:103ED0008100282F30E0F901EA5DFE4FE491F0E027
:103EE000EE0FFF1FEC5BFE4F4591549150935F0521
:103EF00040935E05F901EE5EFE4F249120935D052F
:103F0000332433942BC01092B0001092B1009091E2
:103F1000B00092609093B0009091B1009160909346
:103F2000B100282F30E0F901EA5DFE4FE491F0E0A6
:103F3000EE0FFF1FEC5BFE4F4591549150935805D7
:103F400040935705F901EE5EFE4F249120935605EC
:103F500052E0352E03C03E2E37FC52C161E00E9474
:103F6000D11B4801A12CB12C832D8D7F09F0C7C036
:103F700060E072E18AE790E0A50194010E94C32409
:103F800029833A834B835C8369017A0181E0C81AF3
:103F9000D108E108F1089FEFC916D104E104F1044A
:103FA00009F008F49AC060E472E48FE090E0A501A3
:103FB00094010E94C32469017A01E1E0CE1AD1087C
:103FC000E108F108F2E03F1219C08FEFC816D104E2
:103FD000E104F10409F008F48AC060E970ED83E0BF
:103FE00090E0A50194010E94C32469017A0191E047
:103FF000C91AD108E108F10883E001C082E0EFEFBF
:10400000CE16D104E104F10409F008F467C068E4B5
:1040100078EE81E090E0A50194010E94C32469013B
:104020007A01F1E0CF1AD108E108F1083320E1F07C
:1040300082E038121BC09FEFC916D104E104F104DD
:1040400009F008F4DBC064E274EF80E090E0A501C1
:1040500094010E94C32469017A01E1E0CE1AD108DB
:10406000E108F10885E003C083E001C084E0FFEFD0
:10407000CF16D104E104F10489F180F162E17AE71D
:1040800080E090E0A50194010E94C32469017A01B7
:1040900081E0C81AD108E108F108311002C084E0BB
:1040A00001C086E09FEFC916D104E104F104B1F02C
:1040B000A8F0C980DA80EB80FC809AE0F594E79460
:1040C000D794C7949A95D1F7E1E0CE1AD108E108C8
:1040D000F108332031F087E00BC081E0332011F08C
:1040E00007C085E095B5987F982B95BD38C082E0D4
:1040F0009091B100987F982B9093B10030C060E010
:1041000072E18AE790E0A50194010E94C32469014D
:104110007A01F1E0CF1AD108E108F108C114D10405
:1041200081E0E806F10488F068E478EE81E090E050
:10413000A50194010E94C32469017A0191E0C91A82
:10414000D108E108F10893E001C091E0E1E03E12FE
:1041500006C080918100887F892B80938100411463
:1041600051046104710471F0D801AA0FBB1FA301AF
:1041700092010E94F72428EE33E040E050E00E94D4
:10418000A12403C02FEF3FEFA901F1E03F16A1F0FA
:1041900082E0381619F1311033C0C7BC209367058F
:1041A000309368054093690550936A0580916E00CD
:1041B000826080936E0024C0D0928900C0928800F3
:1041C0002093600530936105409362055093630529
:1041D00080916F00826080936F0012C0C092B30024
:1041E0002093590530935A0540935B0550935C0525
:1041F0008091700082608093700002C084E078CF6C
:104200000F900F900F900F90DF91CF911F910F9112
:10421000FF90EF90DF90CF90BF90AF909F908F90E6
:104220007F906F905F904F903F900895813039F06C
:1042300018F0823051F0089510926E000895809128
:104240006F008D7F80936F000895809170008D7F47
:104250008093700081E08093B0008091B100887FEE
:1042600084608093B1001092B3000895CF93C82F5B
:1042700080911C018C1307C0E8E5F1E084919FEF69
:1042800090931C0101C08FEF0E94162160E08C2FDB
:10429000CF910C940A1C1F920F920FB60F9211240B
:1042A0002F933F934F935F936F937F938F939F933E
:1042B000AF93BF93EF93FF938091590590915A0567
:1042C000A0915B05B0915C05892B8A2B8B2B51F15A
:1042D00090915605E0915705F09158058081892706
:1042E00080838091590590915A05A0915B05B0910A
:1042F0005C05181619061A061B06C4F480915905A8
:1043000090915A05A0915B05B0915C050197A109B8
:10431000B1098093590590935A05A0935B05B0931A
:104320005C0504C080911C010E943621FF91EF9131
:10433000BF91AF919F918F917F916F915F914F91BD
:104340003F912F910F900FBE0F901F9018954F9295
:104350005F926F927F92AF92BF92CF92DF92EF9275
:10436000FF920F931F93CF93DF93CDB7DEB7290151
:104370003A01621B730B840B950B29893A894B898F
:104380005C892A193B094C095D09298B3A8B4B8BB7
:104390005C8B9B01AC0169897A898B899C890E941D
:1043A0007124E418F50806091709A80197010E946D
:1043B000C3242A0D3B1D4C1D5D1DCA01B901DF91AF
:1043C000CF911F910F91FF90EF90DF90CF90BF9012
:1043D000AF907F906F905F904F90089508950E94E6
:1043E000F11A0E94EE210E94250DC6E9DCE10E942F
:1043F00013122097E1F30E94961CF9CF08955058AC
:10440000BB27AA270ED075C166D130F06BD120F042
:1044100031F49F3F11F41EF45BC10EF4E095E7FB0D
:1044200051C1E92F77D180F3BA1762077307840768
:10443000950718F071F49EF58FC10EF4E0950B2EE0
:10444000BA2FA02D0B01B90190010C01CA01A001E6
:104450001124FF27591B99F0593F50F4503E68F141
:104460001A16F040A22F232F342F4427585FF3CF82
:10447000469537952795A795F0405395C9F77EF453
:104480001F16BA0B620B730B840BBAF09150A1F09C
:10449000FF0FBB1F661F771F881FC2F70EC0BA0F22
:1044A000621F731F841F48F4879577956795B795AA
:1044B000F7959E3F08F0B3CF9395880F08F09927A2
:1044C000EE0F979587950895D9D008F481E0089567
:1044D0000CD00FC107D140F0FED030F021F45F3F87
:1044E00019F0F0C0511139C1F3C014D198F39923D8
:1044F000C9F35523B1F3951B550BBB27AA276217A8
:104500007307840738F09F5F5F4F220F331F441FEC
:10451000AA1FA9F333D00E2E3AF0E0E830D0915024
:104520005040E695001CCAF729D0FE2F27D0660F11
:10453000771F881FBB1F261737074807AB07B0E850
:1045400009F0BB0B802DBF01FF2793585F4F2AF066
:104550009E3F510568F0B6C000C15F3FECF3983E46
:10456000DCF3869577956795B795F7959F5FC9F7C3
:10457000880F911D9695879597F90895E1E0660F4C
:10458000771F881FBB1F621773078407BA0720F0C5
:10459000621B730B840BBA0BEE1F88F7E09508952E
:1045A00004D06894B111D9C00895BCD088F09F5749
:1045B00090F0B92F9927B751A0F0D1F0660F771F6F
:1045C000881F991F1AF0BA95C9F712C0B13081F04F
:1045D000C3D0B1E00895C0C0672F782F8827B85F97
:1045E00039F0B93FCCF3869577956795B395D9F7B0
:1045F0003EF490958095709561957F4F8F4F9F4FBA
:104600000895E89409C097FB3EF4909580957095C5
:1046100061957F4F8F4F9F4F9923A9F0F92F96E90E
:10462000BB279395F695879577956795B795F11183
:10463000F8CFFAF4BB0F11F460FF1BC06F5F7F4F20
:104640008F4F9F4F16C0882311F096E911C0772332
:1046500021F09EE8872F762F05C0662371F096E83B
:10466000862F70E060E02AF09A95660F771F881F0A
:10467000DAF7880F9695879597F90895990F0008AE
:10468000550FAA0BE0E8FEEF16161706E807F90724
:10469000C0F012161306E407F50798F0621B730BBF
:1046A000840B950B39F40A2661F0232B242B252B40
:1046B00021F408950A2609F4A140A6958FEF811DE3
:1046C000811D089597F99F6780E870E060E0089584
:1046D0009FEF80EC089500240A941616170618061A
:1046E0000906089500240A941216130614060506F6
:1046F0000895092E0394000C11F4882352F0BB0F87
:1047000040F4BF2B11F460FF04C06F5F7F4F8F4FE9
:104710009F4F089557FD9058440F551F59F05F3F24
:1047200071F04795880F97FB991F61F09F3F79F0D3
:1047300087950895121613061406551FF2CF469555
:10474000F1DF08C0161617061806991FF1CF8695D7
:104750007105610508940895E894BB2766277727BB
:10476000CB0197F908958ADF08F48FEF08950BD0F5
:10477000C0CFB1DF28F0B6DF18F0952309F0A2CF43
:10478000A7CF1124EACFC6DFA0F3959FD1F3950FF1
:1047900050E0551F629FF001729FBB27F00DB11DC5
:1047A000639FAA27F00DB11DAA1F649F6627B00D55
:1047B000A11D661F829F2227B00DA11D621F739F3E
:1047C000B00DA11D621F839FA00D611D221F749F4C
:1047D0003327A00D611D231F849F600D211D822F93
:1047E000762F6A2F11249F5750408AF0E1F08823DA
:1047F0004AF0EE0FFF1FBB1F661F771F881F9150E7
:104800005040A9F79E3F510570F05CCFA6CF5F3FA7
:10481000ECF3983EDCF3869577956795B795F79519
:10482000E7959F5FC1F7FE2B880F911D96958795A1
:1048300097F9089511F40EF44BCF3EC073DFD0F317
:104840009923D9F3CEF39F57550B87FF43D000240C
:10485000A0E640EA900180585695979528F4805C30
:10486000660F771F881F20F026173707480730F498
:10487000621B730B840B202931294A2BA6951794B0
:104880000794202531254A2758F7660F771F881F80
:1048900020F026173707480730F4620B730B840BA0
:1048A000200D311D411DA09581F7B901842F91582C
:1048B000880F9695879508959F3F31F0915020F489
:1048C000879577956795B795880F911D96958795EC
:1048D00097F9089591505040660F771F881FD2F7BF
:1048E0000895DB018F939F930E94F724BF91AF91AE
:1048F000A29F800D911DA39F900DB29F900D11243A
:104900000895991B79E004C0991F961708F0961B2B
:10491000881F7A95C9F78095089597FB072E16F49E
:10492000009407D077FD09D00E94022507FC05D02E
:104930003EF4909581959F4F0895709561957F4FB6
:104940000895A1E21A2EAA1BBB1BFD010DC0AA1FD0
:10495000BB1FEE1FFF1FA217B307E407F50720F0E8
:10496000A21BB30BE40BF50B661F771F881F991F63
:104970001A9469F760957095809590959B01AC01AC
:10498000BD01CF010895052E97FB1EF400940E94EF
:10499000DA2457FD07D00E94A12407FC03D04EF46F
:1049A0000C94DA2450954095309521953F4F4F4F08
:1049B0005F4F089590958095709561957F4F8F4FCB
:1049C0009F4F0895EE0FFF1F0590F491E02D09947D
:1049D000A29FB001B39FC001A39F700D811D112440
:1049E000911DB29F700D811D1124911D08950E948B
:1049F000E824A59F900DB49F900DA49F800D911D5C
:104A000011240895AA1BBB1B51E107C0AA1FBB1F9D
:104A1000A617B70710F0A61BB70B881F991F5A954A
:104A2000A9F780959095BC01CD010895CF93DF93B0
:104A30008230910510F482E090E0E0916D05F091F4
:104A40006E0520E030E0A0E0B0E0309739F1408121
:104A5000518148175907B8F04817590771F48281F6
:104A60009381109729F013969C938E9312972CC0E4
:104A700090936E0580936D0527C02115310531F0A7
:104A80004217530718F0A901DB0101C0EF019A0199
:104A9000BD01DF010280F381E02DD7CF2115310563
:104AA000F9F0281B390B2430310580F48A819B8171
:104AB0006115710521F0FB019383828304C09093FB
:104AC0006E0580936D05FE01329644C0FE01E20F33
:104AD000F31F8193919322503109398328833AC07F
:104AE00020916B0530916C05232B41F4209102013C
:104AF0003091030130936C0520936B0520910001E8
:104B0000309101012115310541F42DB73EB7409197
:104B1000040150910501241B350BE0916B05F091C8
:104B20006C05E217F307A0F42E1B3F0B281739077B
:104B300078F0AC014E5F5F4F2417350748F04E0FF9
:104B40005F1F50936C0540936B058193919302C056
:104B5000E0E0F0E0CF01DF91CF910895CF93DF93B4
:104B6000009709F487C0FC01329713821282C0912A
:104B70006D05D0916E05209781F420813181280F39
:104B8000391F80916B0590916C058217930779F519
:104B9000F0936C05E0936B056DC0DE0120E030E022
:104BA000AE17BF0750F412964D915C9113979D017B
:104BB0004115510509F1DA01F3CFB383A283408196
:104BC0005181840F951F8A179B0771F48D919C91D9
:104BD0001197840F951F02969183808312968D9171
:104BE0009C911397938382832115310529F4F093C7
:104BF0006E05E0936D053EC0D9011396FC93EE93CC
:104C000012974D915D91A40FB51FEA17FB0779F438
:104C100080819181840F951F0296D90111969C93F2
:104C20008E938281938113969C938E931297E0E0EA
:104C3000F0E08A819B81009719F0FE01EC01F9CF29
:104C4000CE01029628813981820F931F20916B0536
:104C500030916C052817390769F4309729F41092C0
:104C60006E0510926D0502C013821282D0936C05FE
:0E4C7000C0936B05DF91CF910895F894FFCFAC
:104C7E0000006F058000010000000019324A6278C2
:104C8E008DA2B4C5D4E1ECF4FAFDFF01FF000000E3
:104C9E00008D0295047104AB04EC032204C0027370
:104CAE00796E6300020A08100000000074124712A9
:104CBE001C12241237124612000000004B1A531E0B
:104CCE0000000000E71C531E691C821C741CC51CCE
:107E0000112484B714BE81FFF0D085E080938100F7
:107E100082E08093C00088E18093C10086E0809377
:107E2000C20080E18093C4008EE0C9D0259A86E02C
:107E300020E33CEF91E0309385002093840096BBD3
:107E4000B09BFECF1D9AA8958150A9F7CC24DD24C4
:107E500088248394B5E0AB2EA1E19A2EF3E0BF2EE7
:107E6000A2D0813461F49FD0082FAFD0023811F036
:107E7000013811F484E001C083E08DD089C08234E0
:107E800011F484E103C0853419F485E0A6D080C0E4
:107E9000853579F488D0E82EFF2485D0082F10E0AE
:107EA000102F00270E291F29000F111F8ED06801E7
:107EB0006FC0863521F484E090D080E0DECF843638
:107EC00009F040C070D06FD0082F6DD080E0C81688
:107ED00080E7D80618F4F601B7BEE895C0E0D1E017
:107EE00062D089930C17E1F7F0E0CF16F0E7DF06D8
:107EF00018F0F601B7BEE89568D007B600FCFDCFD4
:107F0000A601A0E0B1E02C9130E011968C91119780
:107F100090E0982F8827822B932B1296FA010C0160
:107F200087BEE89511244E5F5F4FF1E0A038BF0790
:107F300051F7F601A7BEE89507B600FCFDCF97BE46
:107F4000E89526C08437B1F42ED02DD0F82E2BD052
:107F50003CD0F601EF2C8F010F5F1F4F84911BD097
:107F6000EA94F801C1F70894C11CD11CFA94CF0C13
:107F7000D11C0EC0853739F428D08EE10CD085E9AC
:107F80000AD08FE07ACF813511F488E018D01DD067
:107F900080E101D065CF982F8091C00085FFFCCF94
:107FA0009093C60008958091C00087FFFCCF809118
:107FB000C00084FD01C0A8958091C6000895E0E648
:107FC000F0E098E1908380830895EDDF803219F02E
:107FD00088E0F5DFFFCF84E1DECF1F93182FE3DFCA
:107FE0001150E9F7F2DF1F91089580E0E8DFEE27F6
:047FF000FF270994CA
:027FFE00040479
:0400000300007E007B
:00000001FF
